:020000040800F2
:100000000040002081030008ED030008ED03000814
:1000100000000000000000000000000000000000E0
:10002000000000000000000000000000ED030008D8
:100030000000000000000000ED030008ED030008D0
:10004000ED030008ED030008ED030008ED030008D0
:10005000ED030008ED030008ED030008ED030008C0
:10006000ED030008ED030008ED030008ED030008B0
:10007000ED030008ED030008ED030008ED030008A0
:10008000ED030008ED030008ED030008ED03000890
:10009000ED030008ED030008ED030008ED03000880
:1000A000ED030008ED030008ED030008ED03000870
:1000B000ED030008ED030008ED030008ED03000860
:0400C0005FF808F1EC
:1000C40010B5064C2378002B07D1054B002B02D02A
:1000D400044800E000BF0123237010BD2804002061
:1000E4000000000020050008084B10B5002B03D0C9
:1000F4000749084800E000BF07480368002B00D107
:1001040010BD064B002BFBD09847F9E70000000018
:100114002C04002020050008280400200000000012
:1001240008D04DE20030A0E304308DE500308DE5C9
:10013400F0209FE5003092E5013883E3003082E54A
:10014400E0309FE5003093E5023803E200308DE5AE
:1001540004309DE5013083E204308DE500309DE5F7
:10016400000053E30200001A04309DE5050A53E33E
:10017400F2FFFF1AAC309FE5003093E5020813E369
:100184000130A01300308D150030A00300308D0520
:1001940000309DE5010053E32000001A1120A0E384
:1001A40084309FE5002083E5013A43E2042093E58F
:1001B400042083E5042093E5042083E5042093E5EB
:1001C400FE29C2E3042083E5042093E5112882E399
:1001D400042083E5002093E5012482E3002083E5E5
:1001E40040309FE5003093E5020413E3FBFFFF0A70
:1001F40030309FE5042093E50320C2E3042083E527
:10020400042093E5022082E3042083E514309FE573
:10021400043093E50C3003E2080053E3FAFFFF1ABD
:1002240008D08DE21EFF2FE10010024000200240A2
:1002340010402DE97C309FE5002093E5012082E306
:10024400002083E5041093E56C209FE5012002E083
:10025400042083E5002093E54227C2E30128C2E39A
:10026400002083E5002093E50127C2E3002083E515
:10027400042093E53F28C2E3042083E52C2093E582
:100284000F20C2E32C2083E5302093E5152EC2E332
:100294000320C2E3302083E5342093E50120C2E348
:1002A400342083E50020A0E3082083E59BFFFFEBD7
:1002B4001040BDE81EFF2FE1001002400CB8FF08FB
:1002C40010402DE9020000EB0000A0E3160000EB53
:1002D400FCFFFFEA4C209FE5143092E5023883E3EB
:1002E400143082E51233A0E3002093E50329C2E32E
:1002F400002083E5B420D3E1802082E3B420C3E16D
:100304000C2093E5032AC2E30C2083E5082093E53F
:10031400032982E3082083E5182093E5022582E37C
:10032400182083E51EFF2FE100100240000050E377
:100334000200000A010050E30500000A090000EA77
:100344001223A0E3B431D2E1803083E3B431C2E1BB
:100354001EFF2FE11223A0E3B431D2E18030C3E3C6
:10036400B431C2E11EFF2FE11223A0E3183092E55D
:10037400023583E3183082E51EFF2FE112488546DB
:1003840004200168090E1F22914205D10F48012162
:1003940001600F4800210160002103E00D4B5B5810
:1003A400435004310C480D4B42189A42F6D30C4A80
:1003B40002E00023136004320A4B9A42F9D3FFF798
:1003C40037FFFFF77DFFFEE70040002018100240D2
:1003D4000000014048050008000000202804002017
:1003E4002804002044040020FEE70000034B10B55D
:1003F400002B02D0024800F005F810BD00000000F8
:100404001904000810B5010000230022002000F0A8
:100414001BF810BD70B5094B094CE41AA41009D09F
:10042400084AA518AD00ED182B68013C9847043D17
:10043400002CF9D100F078F870BDC04644050008DE
:1004440048050008FFFFFF3FF8B544465F4656469F
:100454004D469B462F4BF0B41C68A4235B0005005B
:10046400E0580E00904600284BD043681F2B0DDC4B
:100474005C1C002D21D102339B0044601E500020DF
:100484003CBC90469946A246AB46F8BD224B002B95
:100494003CD0C820400000E000BF002836D0A42291
:1004A40000235200A15843600160A05040328350A1
:1004B400043283500124002DDDD09A0091468144FA
:1004C400424688214F467A50C422520090468044C6
:1004D40042468739994012688A460A4394464246FE
:1004E40061461160842249465F4652008F50022DB6
:1004F400C1D1020055468D32FF3211680D4315609B
:10050400B9E720004D30FF30E050AEE70120404213
:10051400B6E7C0463805000800000000F8B5C0463C
:10052400F8BC08BC9E467047F8B5C046F8BC08BC89
:040534009E46704728
:04053800000000209F
:08053C00F1030008ED000008C6
:04054400C5000008E6
:1005480000000000EC02002054030020BC0300203F
:100558000000000000000000000000000000000093
:100568000000000000000000000000000000000083
:100578000000000000000000000000000000000073
:100588000000000000000000000000000000000063
:100598000000000000000000000000000000000053
:1005A8000000000000000000000000000000000043
:1005B8000000000000000000000000000000000033
:1005C8000000000000000000000000000000000023
:1005D8000000000000000000000000000000000013
:1005E8000000000000000000010000000000000002
:1005F8000E33CDAB34126DE6ECDE05000B000000C7
:1006080000000000000000000000000000000000E2
:1006180000000000000000000000000000000000D2
:1006280000000000000000000000000000000000C2
:1006380000000000000000000000000000000000B2
:04000005080003816B
:00000001FF
